:100A5D00FF7F3F1F0F070301FFFEFCF8F0E0C08092
:080A6D00804020100804020182
:100800007508FE780C7C007D007BFF7A0A795D7E9E
:10081000007F08120A0B78147C007D007BFF7A0AA7
:1008200079657E007F08120A0B781C7C007D007BB6
:10083000FF7A0A796D7E007F08120A0B75A0038586
:10084000A009530903E5091460621470030208FF4C
:1008500014700302091D240370E5E4F50AC3E50AD8
:1008600094087480948050D775087F850A0BC3E57F
:100870000B94087480948050277414120A31C37446
:1008800008950A241CF8E65508600BE508C313F523
:10089000084308808006E508C313F508050B80CEE1
:1008A000E5A065096002804D050A80B1E4F50AC340
:1008B000E50A94087480948050857508FE850A0BBB
:1008C000C3E50B9408748094805024740C120A3190
:1008D000741C250AF8E65508600BE50825E0F508C4
:1008E0004308018006E50825E0F508050B80D1E501
:1008F000A0650960067508FE02083F050A80B085FC
:100900000890120A39E50830E00AC313F5084308D5
:100910008002083FE508C313F50802083F850890E8
:10092000120A39E50830E70A25E0F5084308010214
:0B093000083FE50825E0F50802083F3D
:0C0A3100250AF8E65508F5907F017E00CC
:100A3D00E4FDFCC3ED9FEC9E5015E4FBFA0BBB00EF
:0F0A4D00010ABA04F8BBFBF50DBD00010C80E4F3
:010A5C002277
:03000000020A757C
:0C0A7500787FE4F6D8FD758123020800AC
:10093B00E709F608DFFA8046E709F208DFFA803E9E
:10094B0088828C83E709F0A3DFFA8032E309F6088B
:10095B00DFFA8078E309F208DFFA807088828C83F3
:10096B00E309F0A3DFFA806489828A83E0A3F608A7
:10097B00DFFA805889828A83E0A3F208DFFA804C81
:10098B0080D280FA80C680D4806980F28033801058
:10099B0080A680EA809A80A880DA80E280CA8033C1
:1009AB0089828A83ECFAE493A3C8C582C8CCC58339
:1009BB00CCF0A3C8C582C8CCC583CCDFE9DEE78009
:1009CB000D89828A83E493A3F608DFF9ECFAA9F088
:1009DB00EDFB2289828A83ECFAE0A3C8C582C8CCDE
:1009EB00C583CCF0A3C8C582C8CCC583CCDFEADEF7
:1009FB00E880DB89828A83E493A3F208DFF980CC59
:100A0B0088F0EF60010E4E60C388F0ED2402B40451
:100A1B000050B9F582EB2402B4040050AF232345F8
:060A2B00822390098B7389
:00000001FF
